:4000000080673030303030307e3030307e3030307e3030307e3030307e3030307d07d67e7d05e37e7e3030307e3030307e3030307e3030307d03c87e7e3030307e3030309e
:400040007e3030307e3030307e3030307e3030307e3030307e3030307e3030307e3030307e3030307e303030711062fa0062e38770ef50202850402850602862e33841fe08
:40008000fb50804e62e33855f80055f900711062e00a70ef62e338627105627505627905627d0562d10750004e62d30762d00062d50062d40071c07c035d62d00050025753
:4000c000560828531118750900284b5111800475090062e300082860d574a04b1875090008285311187509000828a01c53101875090008283f114711ffb0065dd57460d593
:40010000187a10bfeb8fc9187509000828531050003f114711ffb0085dd57460d550007a10bfef188faa18711070ef62e000711062e00843e78070ef62e2007c062d8fff00
:4001400050107f3030303030303030303030303030303030303030303030303030303030303030303030303030303030303030303030303030303030303030303030303030
:400180003030303030303030303030303030303030303030303030303030303030303030234379636c65733a200052504d3a200050756c73652057696474683a2000230070
:4001c00021ff2200330031ff3200370635ff36006028660063056500e600e700d600b000b100b200b333b433b508b600b865b900ba10bb33bc33bd00be00c020c100c22055
:40020000c333c433c500c600c855c900ca30cb33cc33cd00ce006c006d006e006f00ff203121112244301031e13240343035313640610069006000620067336833630066a2
:4002400000d100d300d000d200e100e200df07de02dd00e700ff0bec70ef62000071106200006201ff70ef6203ff620200711062020062030070ef62010062040071106273
:4002800004506205ae70ef6207aa620614711062060062070170ef620501620800711062087f62098070ef620b80620a007110620a00620b0070ef620900620c00711062e1
:4002c0000c00620d0070ef620f00620e007110620e00620f0070ef620d00621000711062100062110070ef621300621200711062120062130070ef6211006214007110625e
:40030000140062150070ef621700621600711062160062170070ef621500621800711062180062190070ef621b00621a007110621a00621b0070ef621900621c007110629d
:400340001c00621d0070ef621f00621e007110621e00621f0070ef621d0070ef7f55000055017f5502807c036d7c02587f1070ef500067500157be7c03885001675002570e
:400380001f7c038870ef207f380210084f56fc00d00456fc01182070ef62e30010082839ffa01f4f48fc01a003711054fd18207509001008284f59fd610018207509008fa2
:4003c000d738fc703f71c07f7d08bc7e43e1207f41e1df7f4333017f4133fe7f60315b60357f60325b60367f5d365c5d327f4f38035d33085d32085d36085d305d365401e2
:400400005d325402500049f701a0035001540070fe4133fe1860361860321860331820703f71c07e5d305d365c5d327f081028b00420187f9044201875dff2748fef3031ab
:4004400032333435363738394142434445460867676767210fffe7902118210fffe0901a7f4b9fea5b9fe77f70bf60d35200a0069008758ff8703f71c07f906508676767cd
:4004800067210f903b18210f40404090337f90510867676767210f900918210f40404090017f0862d0002600805100600818210f29102a006008530040218f530060087f01
:4004c0000862d0002600802e00205100600818210f29302a00600853004021af530060087f0862d000260080510060082601f051017110600870ef2e004051006008401084
:4005000057ff2e00505100600840405d08082600c0510060084040402e00505100600840402600c051006008182108a00479bfd3202e017f51017110600870ef187f62d06b
:40054000002601802e017f2602805101711060085102600970ef50fa906750fa906350039f405052905b50039f3890639061905f50039f2e505a904950029f26505a9041b9
:4005800050089f0a505a903950019f02505a903150069efa500e9ef6502c9ef250089eee500c9eea50039ee6505a90157f80c094d4210310fff74f03ff209ed2703f71c07e
:4005c0007f900c78bffc7f08193a7c010101010871105de070ef21073905d006ffe978bffe187f7d096d7e43e1017f41e1fe7f4323017f4123fe7f60217f60227f5d227fc4
:400600004f5d22084123fe71105d210862210070ef5d205d22085200602271105201602170ef4323011838fe703f71c07f1050ff7c05fa7c05ef7c05e7207101107c03d452
:400640007c03cc7c053e2043e020107c053e201050005c7c05b1201050010850b05c187c042c2010570d50007c05b17c05fd62d00020107c044e20815a62d0003c1a01b18e
:4006800052551a0062d000511362d000121762d000531062d000511262d0001a1662d00053115110085111530f18530e70fb6e0f6e0e510e530a510f530b550c00550d001f
:4006c00062d000511b62d000530e550f00470e80a004550fff62d000510e5306510f5307470780a0095508ff5509ff800a62d00055080055090062d00051090851080851f8
:40070000070851060850020850ae0850a5085040087c0b6638fc1853061853071853081853095106020a530a51070a0b530b51080a0c530c51090a0d530d5110530e51111d
:40074000530f50000808510f08510e08510d08510c08510b08510a087c0a9118530e18530f181838fc510e5310510f5311511008511162d0005318185319107c053e201077
:4007800050005c7c05b1201050010850aa5c187c042c2010570550007c05b1201062d0005118085119207c04612010570050017c05b1201050010850a05c187c042c201099
:4007c000570950017c05b1201062d000511b7c044e208ea68fff71c0085dd0085dd3085dd4085dd50862d000511108511008510f08510e08510d08510c08510b08510a0819
:400800005109085108085107085106085105085104085103085d0462d0005311471101a05e5d045311471101a0555d045311471101a04c5d0462d0005311471101bff510a0
:400840007c05fd62d0002053111611011051117c05fa7c053e201050005c7c05b1201050010850b05c187c042c2010570d50007c05b17c05fd62d00020107c044e2062d0a3
:400880000018530318530418530518530618530718530818530918530a18530b18530c18530d18530e18530f1853101853111860d51860d41860d31860d0187e71c0085d05
:4008c000d0085dd3085dd4085dd50862d000511108511008510f08510e08510d08510c08510b08510a0851090851080851070851060851050851040851030862d0003c1bed
:4009000000b018107c03ee62d0005a112008511162d00053121853138016107c03ee62d0005a112008511162d000531618531762d000185303185304185305185306185384
:400940000718530818530918530a18530b18530c18530d18530e18530f1853101853111860d51860d41860d31860d0187e71c0085dd0085dd3085dd4085dd50862d0005167
:400980001108511008510f08510e08510d08510c08510b08510a0851090851080851070851060851050851040851030862d0007a151e140050ff121550001a14d0038094ed
:4009c00062d0003c1400b00e3c1514b00962044043b30f807f62d0005014121550001a14d003807062d0003c1400b0163c1513b01162d000551bff41dbcf107c03cc2080fd
:400a00005362d0005115110251141900c01062d0005012121550001a14c003803762d0003c1400b0163c1501b01141dbcf107c03d02062d000551a01801a62d0003c140034
:400a4000b0123c1500b00d62040041b3f35514035515e862d00018530318530418530518530618530718530818530918530a18530b18530c18530d18530e18530f1853100a
:400a80001853111860d51860d41860d31860d0187e104f380150003df980c0067c0b3150c03df580c00c104b11044b7c0b31318020087c0ace186ad0047c0b316ad0084b13
:400ac00011044b7c0b3138ff20703f71c07f5dd00862d0005111085000531153055304530356002066fc6cfb6cfa6cf96b036b046b056b1151031bf851041bf751051bf696
:400b000051111bf5c011531152f8140352f71c0452f61c0577fc7b00bfcb510354f8510454f7510554f6511154f51853111860d07f37fcff77fc37fbff0ffb0037faff0f76
:400b4000fa0037f9ff0ff9007f530560e8510460e95dea470580a0030204470480a003020553055deb7f104f5dd00862d00052f560e852fc530460e95deb54f552f67c0b94
:400b80004954f6510505f552fb60e95deb05f552f84c047c0b4954f85f030552fb7c0b49040351050df60ff50052fa7c0b4905f651050df552f960e85deb05f552f75304f8
:400bc00052fc7c0b49020354f751050df60ff50052fb7c0b4905f651050df552fa60e85deb05f51860d020703f71c07f001204000003e800160006ff0030303030303030b1
:400c000030303030303030303030303030303030303030303030303030303030303030303030303030303030303030303030303030303030303030303030303030303030b4
:400c40003030303030303030303030303030303030303030303030303030303030303030303030303030303030303030303030303030303030303030303030303030303074
:400c80003030303030303030303030303030303030303030303030303030303030303030303030303030303030303030303030303030303030303030303030303030303034
:400cc00030303030303030303030303030303030303030303030303030303030303030303030303030303030303030303030303030303030303030303030303030303030f4
:020000040010ea
:020000040020da
:020000004cb002
:00000001ff
