:4000000080673030303030307e3030307e3030307e3030307e3030307e3030307e3030307d06b17e7e3030307e3030307e3030307e3030307d03aa7e7e3030307e303030b7
:400040007e3030307e3030307e3030307e3030307e3030307e3030307e3030307e3030307e3030307e303030711062fa0062e38770ef50202850402850602862e33841fe08
:40008000fb50804e62e33855f80055f900711062e00a70ef62e338627105627505627905627d0562d10750004e62d30762d00062d50062d40071c07c033f62d00050025771
:4000c000380828532518750900284b5125800475090062e300082860d574a04b1875090008285325187509000828a01c53241875090008283f254725ffb0065dd57460d539
:40010000187a24bfeb8fc9187509000828532450003f254725ffb0085dd57460d550007a24bfef188faa18711070ef62e000711062e00a43e78070ef62e2007c07378fff8f
:4001400050107f3030303030303030303030303030303030303030303030303030303030303030303030303030303030303030303030303030303030303030303030303030
:400180003030303030303030303030303030303030303030303030303030303030303030230021ff2280330031ff3200370635ff36006028660063056500e600e700d600c0
:4001c000b000b100b200b333b433b508b600b865b900ba10bb33bc33bd00be00c000c100c220c333c433c500c600c855c900ca30cb33cc33cd00ce006c006d006e006f00ab
:40020000ff203121112204300031e5324034203535364061006900600062006733683363006600d100d300d000d200e172e200df5dde00dd00e700ff0c3c70ef62000071ce
:40024000106200006201ff70ef6203ff620200711062020062030070ef62010062040071106204506205ae70ef6207aa620614711062060062070070ef62050062080071e4
:400280001062087f62098070ef620b80620a007110620a00620b0070ef620900620c007110620c00620d0070ef620f00620e007110620e00620f0070ef620d00621000715f
:4002c0001062100062110070ef621300621200711062120062130070ef621100621400711062140062150070ef621700621600711062160062170070ef621500621800711e
:400300001062180062190070ef621b00621a007110621a00621b0070ef621900621c007110621c00621d0070ef621f00621e007110621e00621f0070ef621d0070ef7f551d
:40034000000055017f5502807c034f7c023a7f1070ef500067500157a07c036a500167500257017c036a70ef207f380210084f56fc00d00456fc01182070ef62e30010081e
:400380002839ffa01f4f48fc01a003711054fd18207509001008284f59fd610018207509008fd738fc703f71c07f081076363c3600b00790295a2a532b90235a30533120e1
:4003c000187e43e1207f41e1df7f4333017f4133fe7f60315b60357f60325b60367f5d365c5d327f4f38035d33085d32085d36085d305d3654015d325402500049f701a05f
:40040000035001540070fe4133fe1860361860321860331820703f71c07e5d305d365c5d327f081028b00420187f9044201875dff2748fef30313233343536373839414292
:40044000434445460867676767210fffe7902118210fffe0901a7f4b9fea5b9fe77f70bf60d35200a0069008758ff8703f71c07f90650867676767210f903b18210f4040d2
:400480004090337f90510867676767210f900918210f40404090017f0862d0002600805100600818210f29102a006008530040218f530060087f0862d0002600802e0020fd
:4004c0005100600818210f29302a00600853004021af530060087f0862d000260080510060082601f051017110600870ef2e004051006008401057ff2e00505100600840e5
:40050000405d08082600c0510060084040402e00505100600840402600c051006008182108a00479bfd3202e017f51017110600870ef187f62d0002601802e017f2602803b
:400540005101711060085102600970ef50fa906750fa906350039f405052905b50039f3890639061905f50039f2e505a904950029f26505a904150089f0a505a90395001f1
:400580009f02505a903150069efa500e9ef6502c9ef250089eee500c9eea50039ee6505a90157f80c094d4210310fff74f03ff209ed2703f71c07f900c78bffc7f08193a1b
:4005c0007c010101010871105de070ef21073905d006ffe978bffe187f4f1052fd59fc703f71c09fc2203dfa00b005500080113dfa06d00752fa15fa8006500617fa059e36
:400600006f7bfbbfe2703f71c07f4f52fd210308ff9103fc9e6e3dfa00b005502080133dfa09d00952fa7856fa00800617fa0850079e3d18787bfbbfd7703f71c07f4f0831
:400640000850409e3f56000156010852003b01d0055000800350ff9e177b01bfef77003d0009bfe51818500c9e1a703f71c07f0010181c1e1f1f001008040201004f38039e
:40068000540250409dfe56000056010852003d0200b005ffda8003ffdd9dd57b01bfee77003d0007bfe438fd500c9dd8703f71c07f7a2d1e2c00b0393c2d14b00862044073
:4006c00043b30f7e3c2d00b00e62040041b3f3552c03552de87e3c2d13b0095536ff41dbcf9cdf3c2d01b00941dbcf9cd95537017e43e1017f41e1fe7f4323017f4123fe59
:400700007f60217f60227f5d227f4f5d22084123fe71105d210862210070ef5d205d22085200602271105201602170ef4323011838fe703f71c07f62d000552de8552c035a
:4007400062d0005536ff62d00055380162d00055370062d000552fe8552e0362d0005526005527805528005529001050807c07047c06f97c06f17c03ca7c05347c0534204f
:400780001050005c7c05a72062d000513862d000532455250065246b250624030e2500512560d43e2453253e245324105125085124207c045720710181e510570e50007c4e
:4007c00005a77c070762d00020107c0444205dda62d00053252625403c2540b07241dabf5d045325472501a0665d045325472501a05d5d045325472501a0545d0462d00018
:400800005325472501bff562d0007638500b3a38d00762d0005538001050005c7c05a72062d000513862d000532455250065246b250624030e2500512560d43e2453253ebf
:40084000245324105125085124207c04572062d0003c3701b14955370062d000512b62d000123162d000532462d000512a62d0001a3062d0005325512453225125532355cd
:40088000240055250062d000513662d0005320552100472080a0045521ff62d0005120531e5121531f471f80a0095520ff5521ff800a62d00055200055210062d00051210b
:4008c00008512008511f08511e08500508505d08504a085080087c0bb638fc18531e18531f185320185321512508512408512308512208512108512008511f08511e087c11
:400900000ae118532218532318532418532538fc0622010e23000e24000e25005122532451235325512408512562d000533218533310570050017c05a7201062d0005132bc
:40094000085133207c04572062d000513862d000532455250065246b250624030e2500512560d43e2453253e24532462d000513362d000142462d000513262d0001c255187
:400980002408512562d0005334185335513408513508900e38fe62d000107c0704208e1b8fff104f62d00052fc532252fb5323472380a0095524ff5525ff800a62d0005581
:4009c000240055250062d000512f62d000531e62d000512e62d000531f51250851240851230851220850000808511f08511e087c0bb638fc185322185323185324185325c3
:400a0000512262d000042962d000512362d0000c2862d000512462d0000c2762d000512562d0000c26512911005128190051271900512631801980d01062d000552600556f
:400a4000270055280055290062d00050ff122950ff1a2850ff1a275126318062d000531d50801a1dd01062d0005526005527ff5528ff5529ff10570e50017c05a72062d065
:400a800000512608512708512808512962d0005322185323185324185325501062d00068256e246e236e2278bff35122107c04442062d000512608512708512808512962f7
:400ac000d0005322185323185324185325501062d00068256e246e236e2278bff35122207f104f380150003df980c0067c0b8150c03df580c00c104b11044b7c0b81318088
:400b000020087c0b1e186ad0047c0b816ad0084b11044b7c0b8138ff20703f71c07f5dd00862d00051250850005325531d531c531b56002066fc6cfb6cfa6cf96b1b6b1cce
:400b40006b1d6b25511b1bf8511c1bf7511d1bf651251bf5c011532552f8141b52f71c1c52f61c1d77fc7b00bfcb511b54f8511c54f7511d54f6512554f51853251860d05f
:400b80007f37fcff77fc37fbff0ffb0037faff0ffa0037f9ff0ff9007f531d60e8511c60e95dea471d80a003021c471c80a003021d531d5deb7f104f5dd00862d00052f5a4
:400bc00060e852fc531c60e95deb54f552f67c0b9954f6511d05f552fb60e95deb05f552f84c1c7c0b9954f85f1b1d52fb7c0b99041b511d0df60ff50052fa7c0b9905f607
:400c0000511d0df552f960e85deb05f552f7531c52fc7c0b99021b54f7511d0df60ff50052fb7c0b9905f6511d0df552fa60e85deb05f51860d020703f71c07f00031807d5
:400c4000d00bb80fa0138817701b581f401b58177013880fa00bb800260006002c0203e8002e0008003603ff0001ff003030303030303030303030303030303030303030c4
:400c80003030303030303030303030303030303030303030303030303030303030303030303030303030303030303030303030303030303030303030303030303030303034
:400cc00030303030303030303030303030303030303030303030303030303030303030303030303030303030303030303030303030303030303030303030303030303030f4
:400d000030303030303030303030303030303030303030303030303030303030303030303030303030303030303030303030303030303030303030303030303030303030b3
:400d40003030303030303030303030303030303030303030303030303030303030303030303030303030303030303030303030303030303030303030303030303030303073
:020000040010ea
:020000040020da
:020000009383e8
:00000001ff
